:100000000C9424010C9445010C9445010C94450179
:100010000C9445010C9445010C9445010C94450148
:100020000C9445010C9445010C9445010C94450138
:100030000C9445010C9445010C9445010C94450128
:100040000C9445010C9445010C9445010C94450118
:100050000C9445010C9445010C9445010C949A02B2
:100060000C9445010C9445010C9445010C944501F8
:100070000C9445010C9445010C9445010C944501E8
:100080000C9445010C9445010C9445010C944501D8
:100090000C9445010C9445010C9445010C944501C8
:1000A0000C9445010C9445010C9445010C944501B8
:1000B0000C9445010C9445010C9445010C944501A8
:1000C0000C9445010C9445010C9445010C94450198
:1000D0000C9445010C9445010C9445010C94450188
:1000E0000C9445010C943C020C9401020C94050202
:1000F0000C941A020C9440020C9410020C942E02E0
:100100000C9420020C9432020C94FB010C94090212
:100110000C940D020C9436020C9428020C941602D6
:100120000C943B020C9424020000200023002600C3
:1001300029002C002F0032000001000003010601FD
:10014000090100000A0B02090C0D0E080703040147
:10015000000000000000000000000000000000009F
:10016000000000000000000000000000000012116C
:10017000100000000000000000000000000000006F
:100180000000000000000000000022002500280000
:100190002B002E003100340002010000050108018F
:1001A0000B0100002100240027002A002D00300050
:1001B000330001010000040107010A0105050505DE
:1001C000070508080808020202020A0A08080404CF
:1001D00004040101010101010101030303030303FD
:1001E0000303040707070C0C0C0C0C0C0C0C02028C
:1001F000020206060606060606060B0B0B0B0B0B89
:100200000B0B010210202008081020401020408015
:1002100002010201080402010102040810204080CA
:100220008040201008040201800402018040201058
:1002300008040201080402010102040810204080A1
:10024000010204081020408011241FBECFEFD1E22C
:10025000DEBFCDBF00E00CBF12E0A0E0B2E0E0E600
:10026000F8E000E00BBF02C007900D92A230B1078A
:10027000D9F723E0A2E0B2E001C01D92AC30B20792
:10028000E1F70E94E2020C941C040C9400003FB7BA
:10029000F8948091030390910403A0910503B09119
:1002A000060326B5A89B05C02F3F19F00196A11D96
:1002B000B11D3FBFBA2FA92F982F8827BC01CD01B0
:1002C000620F711D811D911D42E0660F771F881F0F
:1002D000991F4A95D1F708954F925F926F927F923E
:1002E0008F929F92AF92BF92CF92DF92EF92FF9246
:1002F0000F931F93CF93DF938B01D82FC92F0E94A9
:100300004701262F822E972E5C016801ED2EFC2ED0
:1003100005C0C114D104E104F10409F10E944701B0
:100320002B013C01481859086A087B088601DE2D1C
:10033000CF2D31E0C31AD108E108F108282D792D1D
:10034000C50138EE830E33E0931EA11CB11C38EEBC
:10035000431633E0530661047104D8F6D3CFDF911E
:10036000CF911F910F91FF90EF90DF90CF90BF90B2
:10037000AF909F908F907F906F905F904F90089577
:10038000CF93DF9390E0FC01EE5FFD4F2491845406
:100390009E4FFC0184918115D1F090E0880F991F48
:1003A000FC01EE55FE4FA591B491FC01E857FE4FBC
:1003B000C591D4919FB761110DC0F8948C91E22F33
:1003C000E0958E238C9388818E2388839FBFDF9155
:1003D000CF910895F8948C91822B8C93F7CF815014
:1003E000823108F048C0E82FF0E08827E25EFB4F3A
:1003F0008F4F0C941404809180008F77809380003D
:100400000895809180008F7DF9CF80918000877F53
:10041000F5CF84B58F7784BD089584B58F7DFBCFEC
:100420008091B0008F778093B00008958091B000E4
:100430008F7DF9CF809190008F7780939000089501
:10044000809190008F7DF9CF80919000877FF5CFCC
:100450008091A0008F778093A00008958091A000E4
:100460008F7DF9CF8091A000877FF5CF809120010B
:100470008F77809320010895809120018F7DF9CF9F
:1004800080912001877FF5CF1F93CF93DF93162FA5
:10049000282F30E0F901EE5BFE4F8491F901EE5F09
:1004A000FD4FD491F901E454FE4FC491C115A1F060
:1004B00081110E94EF01EC2FF0E0EE0FFF1FE857D3
:1004C000FE4FA591B4919FB7F8948C91111108C07B
:1004D000D095D823DC939FBFDF91CF911F910895D2
:1004E0008D2B8C93F8CFCF93DF93282F30E0F90139
:1004F000EE5BFE4F8491F901EE5FFD4FD491F9015F
:10050000E454FE4FC491C11581F081110E94EF01A6
:10051000EC2FF0E0EE0FFF1FE85DFE4FA591B491C8
:10052000EC91ED2381E0E11101C080E090E0DF91EA
:10053000CF9108951F921FB61F9211242F933F93BE
:100540008F939F93AF93BF9380910803909109037A
:10055000A0910A03B0910B033091070323E0230F0E
:100560002D3750F50196A11DB11D209307038093EF
:10057000080390930903A0930A03B0930B0380919F
:10058000030390910403A0910503B0910603019623
:10059000A11DB11D8093030390930403A093050351
:1005A000B0930603BF91AF919F918F913F912F918F
:1005B0001F901FBE1F90189526E8230F0296A11DBD
:1005C000B11DD3CF789484B5826084BD84B5816039
:1005D00084BD85B5826085BD85B5816085BD80910E
:1005E0006E00816080936E00109281008091810086
:1005F000826080938100809181008160809381007E
:10060000809180008160809380008091B10084603F
:100610008093B1008091B00081608093B0008091A0
:10062000910082608093910080919100816080931D
:100630009100809190008160809390008091A10052
:1006400082608093A1008091A10081608093A100CD
:100650008091A00081608093A00080912101826040
:1006600080932101809121018160809321018091FB
:10067000200181608093200180917A0084608093C2
:100680007A0080917A00826080937A0080917A006B
:10069000816080937A0080917A00806880937A00EC
:1006A0001092C10061E082E10E94C00161E083E13B
:1006B0000E94C00160E08DE00E94C00160E08CE01B
:1006C0000E94C00160E08BE00E94C00160E08AE00F
:1006D0000E94C00161E087E00E94C00161E086E005
:1006E0000E94C00161E085E00E94C00161E084E0F9
:1006F0000E94C00161E084E10E94C00161E082E0EB
:100700000E94C00161E088E00E94C00161E085E1D3
:100710000E94C00161E08EE00E94C00161E08FE0B4
:100720000E94C00161E080E10E94C00161E081E1BE
:100730000E94C00160E082E10E94440260E087E024
:100740000E94440260E086E00E94440260E085E08E
:100750000E94440260E084E00E94440260E084E180
:100760000E94440260E082E00E94440260E088E06F
:100770000E94440260E085E10E94440260E08EE055
:100780000E94440260E08FE00E94440260E080E149
:100790000E94440260E081E10E944402E2E0F2E053
:1007A00080E090E081930196811521E09207D1F7D6
:1007B00061E083E10E94440261E070E080E090E04B
:1007C0000E946C0160E083E10E9444026AE070E0F4
:1007D00080E090E00E946C0100E010E0D1E08091A8
:1007E00000028115D9F0C09102036C2F82E10E94B2
:1007F000440264E670E080E090E00E946C01CD2746
:10080000C0930203C1110AC08DE00E94730289E007
:100810000E947302019711F4109200020115110554
:10082000F1F20E940000DBCFEE0FFF1F881F8BBF8D
:100830000790F691E02D1994F894FFCF09020D026C
:10084000FB01010205023B02100216021A022002FD
:10085000240228022E0232023B0236023C024002EF
:02086000010095
:00000001FF
